{
  "_format": "hh-sol-artifact-1",
  "contractName": "Game",
  "sourceName": "src/Game.sol",
  "abi": [
    {
      "inputs": [],
      "stateMutability": "nonpayable",
      "type": "constructor"
    },
    {
      "anonymous": false,
      "inputs": [
        {
          "indexed": true,
          "internalType": "address",
          "name": "owner",
          "type": "address"
        },
        {
          "indexed": true,
          "internalType": "address",
          "name": "approved",
          "type": "address"
        },
        {
          "indexed": true,
          "internalType": "uint256",
          "name": "tokenId",
          "type": "uint256"
        }
      ],
      "name": "Approval",
      "type": "event"
    },
    {
      "anonymous": false,
      "inputs": [
        {
          "indexed": true,
          "internalType": "address",
          "name": "owner",
          "type": "address"
        },
        {
          "indexed": true,
          "internalType": "address",
          "name": "operator",
          "type": "address"
        },
        {
          "indexed": false,
          "internalType": "bool",
          "name": "approved",
          "type": "bool"
        }
      ],
      "name": "ApprovalForAll",
      "type": "event"
    },
    {
      "anonymous": false,
      "inputs": [
        {
          "indexed": true,
          "internalType": "address",
          "name": "from",
          "type": "address"
        },
        {
          "indexed": true,
          "internalType": "address",
          "name": "to",
          "type": "address"
        },
        {
          "indexed": true,
          "internalType": "uint256",
          "name": "tokenId",
          "type": "uint256"
        }
      ],
      "name": "Transfer",
      "type": "event"
    },
    {
      "inputs": [
        {
          "internalType": "address",
          "name": "to",
          "type": "address"
        },
        {
          "internalType": "uint256",
          "name": "tokenId",
          "type": "uint256"
        }
      ],
      "name": "approve",
      "outputs": [],
      "stateMutability": "nonpayable",
      "type": "function"
    },
    {
      "inputs": [
        {
          "internalType": "address",
          "name": "owner",
          "type": "address"
        }
      ],
      "name": "balanceOf",
      "outputs": [
        {
          "internalType": "uint256",
          "name": "",
          "type": "uint256"
        }
      ],
      "stateMutability": "view",
      "type": "function"
    },
    {
      "inputs": [
        {
          "internalType": "address",
          "name": "",
          "type": "address"
        },
        {
          "internalType": "uint256",
          "name": "",
          "type": "uint256"
        }
      ],
      "name": "decks",
      "outputs": [
        {
          "internalType": "uint256",
          "name": "",
          "type": "uint256"
        }
      ],
      "stateMutability": "view",
      "type": "function"
    },
    {
      "inputs": [],
      "name": "fight",
      "outputs": [],
      "stateMutability": "nonpayable",
      "type": "function"
    },
    {
      "inputs": [],
      "name": "flagHolder",
      "outputs": [
        {
          "internalType": "address",
          "name": "",
          "type": "address"
        }
      ],
      "stateMutability": "view",
      "type": "function"
    },
    {
      "inputs": [
        {
          "internalType": "uint256",
          "name": "",
          "type": "uint256"
        }
      ],
      "name": "forSale",
      "outputs": [
        {
          "internalType": "bool",
          "name": "",
          "type": "bool"
        }
      ],
      "stateMutability": "view",
      "type": "function"
    },
    {
      "inputs": [
        {
          "internalType": "uint256",
          "name": "tokenId",
          "type": "uint256"
        }
      ],
      "name": "getApproved",
      "outputs": [
        {
          "internalType": "address",
          "name": "",
          "type": "address"
        }
      ],
      "stateMutability": "view",
      "type": "function"
    },
    {
      "inputs": [
        {
          "internalType": "address",
          "name": "owner",
          "type": "address"
        },
        {
          "internalType": "address",
          "name": "operator",
          "type": "address"
        }
      ],
      "name": "isApprovedForAll",
      "outputs": [
        {
          "internalType": "bool",
          "name": "",
          "type": "bool"
        }
      ],
      "stateMutability": "view",
      "type": "function"
    },
    {
      "inputs": [],
      "name": "join",
      "outputs": [
        {
          "internalType": "uint256[3]",
          "name": "deck",
          "type": "uint256[3]"
        }
      ],
      "stateMutability": "nonpayable",
      "type": "function"
    },
    {
      "inputs": [
        {
          "internalType": "uint256",
          "name": "",
          "type": "uint256"
        }
      ],
      "name": "mons",
      "outputs": [
        {
          "internalType": "uint8",
          "name": "water",
          "type": "uint8"
        },
        {
          "internalType": "uint8",
          "name": "air",
          "type": "uint8"
        },
        {
          "internalType": "uint8",
          "name": "fire",
          "type": "uint8"
        },
        {
          "internalType": "uint8",
          "name": "speed",
          "type": "uint8"
        }
      ],
      "stateMutability": "view",
      "type": "function"
    },
    {
      "inputs": [],
      "name": "name",
      "outputs": [
        {
          "internalType": "string",
          "name": "",
          "type": "string"
        }
      ],
      "stateMutability": "view",
      "type": "function"
    },
    {
      "inputs": [
        {
          "internalType": "uint256",
          "name": "tokenId",
          "type": "uint256"
        }
      ],
      "name": "ownerOf",
      "outputs": [
        {
          "internalType": "address",
          "name": "",
          "type": "address"
        }
      ],
      "stateMutability": "view",
      "type": "function"
    },
    {
      "inputs": [
        {
          "internalType": "uint256",
          "name": "_monId",
          "type": "uint256"
        }
      ],
      "name": "putUpForSale",
      "outputs": [],
      "stateMutability": "nonpayable",
      "type": "function"
    },
    {
      "inputs": [
        {
          "internalType": "address",
          "name": "from",
          "type": "address"
        },
        {
          "internalType": "address",
          "name": "to",
          "type": "address"
        },
        {
          "internalType": "uint256",
          "name": "tokenId",
          "type": "uint256"
        }
      ],
      "name": "safeTransferFrom",
      "outputs": [],
      "stateMutability": "nonpayable",
      "type": "function"
    },
    {
      "inputs": [
        {
          "internalType": "address",
          "name": "from",
          "type": "address"
        },
        {
          "internalType": "address",
          "name": "to",
          "type": "address"
        },
        {
          "internalType": "uint256",
          "name": "tokenId",
          "type": "uint256"
        },
        {
          "internalType": "bytes",
          "name": "_data",
          "type": "bytes"
        }
      ],
      "name": "safeTransferFrom",
      "outputs": [],
      "stateMutability": "nonpayable",
      "type": "function"
    },
    {
      "inputs": [
        {
          "internalType": "address",
          "name": "operator",
          "type": "address"
        },
        {
          "internalType": "bool",
          "name": "approved",
          "type": "bool"
        }
      ],
      "name": "setApprovalForAll",
      "outputs": [],
      "stateMutability": "nonpayable",
      "type": "function"
    },
    {
      "inputs": [
        {
          "internalType": "bytes4",
          "name": "interfaceId",
          "type": "bytes4"
        }
      ],
      "name": "supportsInterface",
      "outputs": [
        {
          "internalType": "bool",
          "name": "",
          "type": "bool"
        }
      ],
      "stateMutability": "view",
      "type": "function"
    },
    {
      "inputs": [
        {
          "internalType": "address",
          "name": "_to",
          "type": "address"
        },
        {
          "internalType": "uint256",
          "name": "_monId1",
          "type": "uint256"
        },
        {
          "internalType": "uint256",
          "name": "_monId2",
          "type": "uint256"
        }
      ],
      "name": "swap",
      "outputs": [],
      "stateMutability": "nonpayable",
      "type": "function"
    },
    {
      "inputs": [
        {
          "internalType": "uint256",
          "name": "_monId",
          "type": "uint256"
        }
      ],
      "name": "swapForNewMon",
      "outputs": [],
      "stateMutability": "nonpayable",
      "type": "function"
    },
    {
      "inputs": [],
      "name": "symbol",
      "outputs": [
        {
          "internalType": "string",
          "name": "",
          "type": "string"
        }
      ],
      "stateMutability": "view",
      "type": "function"
    },
    {
      "inputs": [
        {
          "internalType": "uint256",
          "name": "tokenId",
          "type": "uint256"
        }
      ],
      "name": "tokenURI",
      "outputs": [
        {
          "internalType": "string",
          "name": "",
          "type": "string"
        }
      ],
      "stateMutability": "view",
      "type": "function"
    },
    {
      "inputs": [],
      "name": "totalSupply",
      "outputs": [
        {
          "internalType": "uint256",
          "name": "",
          "type": "uint256"
        }
      ],
      "stateMutability": "view",
      "type": "function"
    },
    {
      "inputs": [
        {
          "internalType": "address",
          "name": "from",
          "type": "address"
        },
        {
          "internalType": "address",
          "name": "to",
          "type": "address"
        },
        {
          "internalType": "uint256",
          "name": "tokenId",
          "type": "uint256"
        }
      ],
      "name": "transferFrom",
      "outputs": [],
      "stateMutability": "nonpayable",
      "type": "function"
    }
  ],
  "bytecode": "0x6080604052607b6007553480156200001657600080fd5b506040518060400160405280600b81526020017f486174732047616d6520310000000000000000000000000000000000000000008152506040518060400160405280600381526020017f484731000000000000000000000000000000000000000000000000000000000081525081600090805190602001906200009b9291906200055b565b508060019080519060200190620000b49291906200055b565b50505060006040518060800160405280600960ff168152602001600960ff168152602001600960ff168152602001600960ff16815250905033600b60006101000a81548173ffffffffffffffffffffffffffffffffffffffff021916908373ffffffffffffffffffffffffffffffffffffffff16021790555060005b600360ff168160ff161015620002085762000174600b60009054906101000a900473ffffffffffffffffffffffffffffffffffffffff16836200021060201b60201c565b60096000600b60009054906101000a900473ffffffffffffffffffffffffffffffffffffffff1673ffffffffffffffffffffffffffffffffffffffff1673ffffffffffffffffffffffffffffffffffffffff1681526020019081526020016000208260ff1660038110620001ed57620001ec6200060b565b5b01819055508080620001ff9062000676565b91505062000130565b505062000866565b60008060065490506001600660008282546200022d9190620006af565b92505081905550826008600083815260200190815260200160002060008201518160000160006101000a81548160ff021916908360ff16021790555060208201518160000160016101000a81548160ff021916908360ff16021790555060408201518160000160026101000a81548160ff021916908360ff16021790555060608201518160000160036101000a81548160ff021916908360ff160217905550905050620002e18482620002eb60201b60201c565b8091505092915050565b600073ffffffffffffffffffffffffffffffffffffffff168273ffffffffffffffffffffffffffffffffffffffff1614156200035e576040517f08c379a000000000000000000000000000000000000000000000000000000000815260040162000355906200076d565b60405180910390fd5b6200036f81620004e560201b60201c565b15620003b2576040517f08c379a0000000000000000000000000000000000000000000000000000000008152600401620003a990620007df565b60405180910390fd5b620003c6600083836200055160201b60201c565b6001600360008473ffffffffffffffffffffffffffffffffffffffff1673ffffffffffffffffffffffffffffffffffffffff1681526020019081526020016000206000828254620004189190620006af565b92505081905550816002600083815260200190815260200160002060006101000a81548173ffffffffffffffffffffffffffffffffffffffff021916908373ffffffffffffffffffffffffffffffffffffffff160217905550808273ffffffffffffffffffffffffffffffffffffffff16600073ffffffffffffffffffffffffffffffffffffffff167fddf252ad1be2c89b69c2b068fc378daa952ba7f163c4a11628f55a4df523b3ef60405160405180910390a4620004e1600083836200055660201b60201c565b5050565b60008073ffffffffffffffffffffffffffffffffffffffff166002600084815260200190815260200160002060009054906101000a900473ffffffffffffffffffffffffffffffffffffffff1673ffffffffffffffffffffffffffffffffffffffff1614159050919050565b505050565b505050565b828054620005699062000830565b90600052602060002090601f0160209004810192826200058d5760008555620005d9565b82601f10620005a857805160ff1916838001178555620005d9565b82800160010185558215620005d9579182015b82811115620005d8578251825591602001919060010190620005bb565b5b509050620005e89190620005ec565b5090565b5b8082111562000607576000816000905550600101620005ed565b5090565b7f4e487b7100000000000000000000000000000000000000000000000000000000600052603260045260246000fd5b7f4e487b7100000000000000000000000000000000000000000000000000000000600052601160045260246000fd5b600060ff82169050919050565b6000620006838262000669565b915060ff8214156200069a57620006996200063a565b5b600182019050919050565b6000819050919050565b6000620006bc82620006a5565b9150620006c983620006a5565b9250827fffffffffffffffffffffffffffffffffffffffffffffffffffffffffffffffff038211156200070157620007006200063a565b5b828201905092915050565b600082825260208201905092915050565b7f4552433732313a206d696e7420746f20746865207a65726f2061646472657373600082015250565b6000620007556020836200070c565b915062000762826200071d565b602082019050919050565b60006020820190508181036000830152620007888162000746565b9050919050565b7f4552433732313a20746f6b656e20616c7265616479206d696e74656400000000600082015250565b6000620007c7601c836200070c565b9150620007d4826200078f565b602082019050919050565b60006020820190508181036000830152620007fa81620007b8565b9050919050565b7f4e487b7100000000000000000000000000000000000000000000000000000000600052602260045260246000fd5b600060028204905060018216806200084957607f821691505b6020821081141562000860576200085f62000801565b5b50919050565b613c5e80620008766000396000f3fe608060405234801561001057600080fd5b506004361061014d5760003560e01c80636352211e116100c3578063b688a3631161007c578063b688a3631461039c578063b88d4fde146103ba578063c87b56dd146103d6578063db1fc87914610406578063de13cbad14610422578063e985e9c5146104555761014d565b80636352211e146102b657806370a08231146102e657806377ea12481461031657806395d89b41146103465780639f1d0f5914610364578063a22cb465146103805761014d565b806318160ddd1161011557806318160ddd1461020857806323b872dd146102265780632831f2f4146102425780632ded77161461027257806342842e0e14610290578063457df8de146102ac5761014d565b806301ffc9a71461015257806306fdde0314610182578063081812fc146101a0578063095ea7b3146101d05780630d3c47f9146101ec575b600080fd5b61016c60048036038101906101679190612792565b610485565b60405161017991906127da565b60405180910390f35b61018a610567565b604051610197919061288e565b60405180910390f35b6101ba60048036038101906101b591906128e6565b6105f9565b6040516101c79190612954565b60405180910390f35b6101ea60048036038101906101e5919061299b565b61067e565b005b610206600480360381019061020191906128e6565b610796565b005b61021061088c565b60405161021d91906129ea565b60405180910390f35b610240600480360381019061023b9190612a05565b610892565b005b61025c600480360381019061025791906128e6565b6108d8565b60405161026991906127da565b60405180910390f35b61027a6108f8565b6040516102879190612954565b60405180910390f35b6102aa60048036038101906102a59190612a05565b61091e565b005b6102b461093e565b005b6102d060048036038101906102cb91906128e6565b610de2565b6040516102dd9190612954565b60405180910390f35b61030060048036038101906102fb9190612a58565b610e94565b60405161030d91906129ea565b60405180910390f35b610330600480360381019061032b919061299b565b610f4c565b60405161033d91906129ea565b60405180910390f35b61034e610f74565b60405161035b919061288e565b60405180910390f35b61037e60048036038101906103799190612a85565b611006565b005b61039a60048036038101906103959190612b04565b6111e2565b005b6103a46111f8565b6040516103b19190612bef565b60405180910390f35b6103d460048036038101906103cf9190612d3f565b611315565b005b6103f060048036038101906103eb91906128e6565b61135c565b6040516103fd919061288e565b60405180910390f35b610420600480360381019061041b91906128e6565b611403565b005b61043c600480360381019061043791906128e6565b6114a8565b60405161044c9493929190612dde565b60405180910390f35b61046f600480360381019061046a9190612e23565b61150c565b60405161047c91906127da565b60405180910390f35b60007f80ac58cd000000000000000000000000000000000000000000000000000000007bffffffffffffffffffffffffffffffffffffffffffffffffffffffff1916827bffffffffffffffffffffffffffffffffffffffffffffffffffffffff1916148061055057507f5b5e139f000000000000000000000000000000000000000000000000000000007bffffffffffffffffffffffffffffffffffffffffffffffffffffffff1916827bffffffffffffffffffffffffffffffffffffffffffffffffffffffff1916145b80610560575061055f826115a0565b5b9050919050565b60606000805461057690612e92565b80601f01602080910402602001604051908101604052809291908181526020018280546105a290612e92565b80156105ef5780601f106105c4576101008083540402835291602001916105ef565b820191906000526020600020905b8154815290600101906020018083116105d257829003601f168201915b5050505050905090565b60006106048261160a565b610643576040517f08c379a000000000000000000000000000000000000000000000000000000000815260040161063a90612f36565b60405180910390fd5b6004600083815260200190815260200160002060009054906101000a900473ffffffffffffffffffffffffffffffffffffffff169050919050565b600061068982610de2565b90508073ffffffffffffffffffffffffffffffffffffffff168373ffffffffffffffffffffffffffffffffffffffff1614156106fa576040517f08c379a00000000000000000000000000000000000000000000000000000000081526004016106f190612fc8565b60405180910390fd5b8073ffffffffffffffffffffffffffffffffffffffff16610719611676565b73ffffffffffffffffffffffffffffffffffffffff161480610748575061074781610742611676565b61150c565b5b610787576040517f08c379a000000000000000000000000000000000000000000000000000000000815260040161077e9061305a565b60405180910390fd5b610791838361167e565b505050565b60003390508073ffffffffffffffffffffffffffffffffffffffff166107bb83610de2565b73ffffffffffffffffffffffffffffffffffffffff1614610811576040517f08c379a0000000000000000000000000000000000000000000000000000000008152600401610808906130ec565b60405180910390fd5b600061081d8284611737565b9050610828836117bf565b610831826118dc565b600960008473ffffffffffffffffffffffffffffffffffffffff1673ffffffffffffffffffffffffffffffffffffffff16815260200190815260200160002082600381106108825761088161310c565b5b0181905550505050565b60065481565b60006108d3576040517f08c379a00000000000000000000000000000000000000000000000000000000081526004016108ca90613187565b60405180910390fd5b505050565b600a6020528060005260406000206000915054906101000a900460ff1681565b600b60009054906101000a900473ffffffffffffffffffffffffffffffffffffffff1681565b61093983838360405180602001604052806000815250611315565b505050565b60003390506000600b60009054906101000a900473ffffffffffffffffffffffffffffffffffffffff1690506000600960008473ffffffffffffffffffffffffffffffffffffffff1673ffffffffffffffffffffffffffffffffffffffff1681526020019081526020016000206003806020026040519081016040528092919082600380156109e2576020028201915b8154815260200190600101908083116109ce575b505050505090506000600960008473ffffffffffffffffffffffffffffffffffffffff1673ffffffffffffffffffffffffffffffffffffffff168152602001908152602001600020600380602002604051908101604052809291908260038015610a61576020028201915b815481526020019060010190808311610a4d575b5050505050905060005b600360ff168160ff161015610b2c576000610a8660036118fb565b9050610ac7848360ff1660038110610aa157610aa061310c565b5b6020020151848460ff1660038110610abc57610abb61310c565b5b60200201518361195c565b15610af457610aef838360ff1660038110610ae557610ae461310c565b5b60200201516117bf565b610b18565b610b17848360ff1660038110610b0d57610b0c61310c565b5b60200201516117bf565b5b508080610b24906131d6565b915050610a6b565b50610b3683610e94565b610b3f85610e94565b1115610b875783600b60006101000a81548173ffffffffffffffffffffffffffffffffffffffff021916908373ffffffffffffffffffffffffffffffffffffffff1602179055505b6000600960008673ffffffffffffffffffffffffffffffffffffffff1673ffffffffffffffffffffffffffffffffffffffff168152602001908152602001600020600380602002604051908101604052809291908260038015610bff576020028201915b815481526020019060010190808311610beb575b505050505090506000600960008673ffffffffffffffffffffffffffffffffffffffff1673ffffffffffffffffffffffffffffffffffffffff168152602001908152602001600020600380602002604051908101604052809291908260038015610c7e576020028201915b815481526020019060010190808311610c6a575b5050505050905060005b600360ff16811015610d3b57610cb4838260038110610caa57610ca961310c565b5b602002015161160a565b610cde57610cc1876118dc565b838260038110610cd457610cd361310c565b5b6020020181815250505b610cfe828260038110610cf457610cf361310c565b5b602002015161160a565b610d2857610d0b866118dc565b828260038110610d1e57610d1d61310c565b5b6020020181815250505b8080610d3390613200565b915050610c88565b5081600960008873ffffffffffffffffffffffffffffffffffffffff1673ffffffffffffffffffffffffffffffffffffffff168152602001908152602001600020906003610d8a929190612673565b5080600960008773ffffffffffffffffffffffffffffffffffffffff1673ffffffffffffffffffffffffffffffffffffffff168152602001908152602001600020906003610dd9929190612673565b50505050505050565b6000806002600084815260200190815260200160002060009054906101000a900473ffffffffffffffffffffffffffffffffffffffff169050600073ffffffffffffffffffffffffffffffffffffffff168173ffffffffffffffffffffffffffffffffffffffff161415610e8b576040517f08c379a0000000000000000000000000000000000000000000000000000000008152600401610e82906132bb565b60405180910390fd5b80915050919050565b60008073ffffffffffffffffffffffffffffffffffffffff168273ffffffffffffffffffffffffffffffffffffffff161415610f05576040517f08c379a0000000000000000000000000000000000000000000000000000000008152600401610efc9061334d565b60405180910390fd5b600360008373ffffffffffffffffffffffffffffffffffffffff1673ffffffffffffffffffffffffffffffffffffffff168152602001908152602001600020549050919050565b60096020528160005260406000208160038110610f6857600080fd5b01600091509150505481565b606060018054610f8390612e92565b80601f0160208091040260200160405190810160405280929190818152602001828054610faf90612e92565b8015610ffc5780601f10610fd157610100808354040283529160200191610ffc565b820191906000526020600020905b815481529060010190602001808311610fdf57829003601f168201915b5050505050905090565b6000339050600a600083815260200190815260200160002060009054906101000a900460ff1661106b576040517f08c379a0000000000000000000000000000000000000000000000000000000008152600401611062906133df565b60405180910390fd5b8373ffffffffffffffffffffffffffffffffffffffff168173ffffffffffffffffffffffffffffffffffffffff1614156110da576040517f08c379a00000000000000000000000000000000000000000000000000000000081526004016110d19061344b565b60405180910390fd5b6110f581858560405180602001604052806000815250611bf5565b61111084828460405180602001604052806000815250611bf5565b600061111c8285611737565b9050600061112a8685611737565b905083600960008573ffffffffffffffffffffffffffffffffffffffff1673ffffffffffffffffffffffffffffffffffffffff168152602001908152602001600020836003811061117e5761117d61310c565b5b018190555084600960008873ffffffffffffffffffffffffffffffffffffffff1673ffffffffffffffffffffffffffffffffffffffff16815260200190815260200160002082600381106111d5576111d461310c565b5b0181905550505050505050565b6111f46111ed611676565b8383611c51565b5050565b6112006126b3565b6000339050600061121082610e94565b14611250576040517f08c379a0000000000000000000000000000000000000000000000000000000008152600401611247906134b7565b60405180910390fd5b611259816118dc565b8260006003811061126d5761126c61310c565b5b60200201818152505061127f816118dc565b826001600381106112935761129261310c565b5b6020020181815250506112a5816118dc565b826002600381106112b9576112b861310c565b5b60200201818152505081600960008373ffffffffffffffffffffffffffffffffffffffff1673ffffffffffffffffffffffffffffffffffffffff168152602001908152602001600020906003611310929190612673565b505090565b6000611356576040517f08c379a000000000000000000000000000000000000000000000000000000000815260040161134d90613187565b60405180910390fd5b50505050565b60606113678261160a565b6113a6576040517f08c379a000000000000000000000000000000000000000000000000000000000815260040161139d90613549565b60405180910390fd5b60006113b0611dbe565b905060008151116113d057604051806020016040528060008152506113fb565b806113da84611dd5565b6040516020016113eb9291906135a5565b6040516020818303038152906040525b915050919050565b3373ffffffffffffffffffffffffffffffffffffffff1661142382610de2565b73ffffffffffffffffffffffffffffffffffffffff1614611479576040517f08c379a00000000000000000000000000000000000000000000000000000000081526004016114709061363b565b60405180910390fd5b6001600a600083815260200190815260200160002060006101000a81548160ff02191690831515021790555050565b60086020528060005260406000206000915090508060000160009054906101000a900460ff16908060000160019054906101000a900460ff16908060000160029054906101000a900460ff16908060000160039054906101000a900460ff16905084565b6000600560008473ffffffffffffffffffffffffffffffffffffffff1673ffffffffffffffffffffffffffffffffffffffff16815260200190815260200160002060008373ffffffffffffffffffffffffffffffffffffffff1673ffffffffffffffffffffffffffffffffffffffff16815260200190815260200160002060009054906101000a900460ff16905092915050565b60007f01ffc9a7000000000000000000000000000000000000000000000000000000007bffffffffffffffffffffffffffffffffffffffffffffffffffffffff1916827bffffffffffffffffffffffffffffffffffffffffffffffffffffffff1916149050919050565b60008073ffffffffffffffffffffffffffffffffffffffff166002600084815260200190815260200160002060009054906101000a900473ffffffffffffffffffffffffffffffffffffffff1673ffffffffffffffffffffffffffffffffffffffff1614159050919050565b600033905090565b816004600083815260200190815260200160002060006101000a81548173ffffffffffffffffffffffffffffffffffffffff021916908373ffffffffffffffffffffffffffffffffffffffff160217905550808273ffffffffffffffffffffffffffffffffffffffff166116f183610de2565b73ffffffffffffffffffffffffffffffffffffffff167f8c5be1e5ebec7d5bd14f71427d1e84f3dd0314c0f7b2291e5b200ac8c7c3b92560405160405180910390a45050565b6000805b600360ff168110156117b85782600960008673ffffffffffffffffffffffffffffffffffffffff1673ffffffffffffffffffffffffffffffffffffffff16815260200190815260200160002082600381106117995761179861310c565b5b015414156117a5578091505b80806117b090613200565b91505061173b565b5092915050565b60006117ca82610de2565b90506117d881600084611f36565b6117e360008361167e565b6001600360008373ffffffffffffffffffffffffffffffffffffffff1673ffffffffffffffffffffffffffffffffffffffff1681526020019081526020016000206000828254611833919061365b565b925050819055506002600083815260200190815260200160002060006101000a81549073ffffffffffffffffffffffffffffffffffffffff021916905581600073ffffffffffffffffffffffffffffffffffffffff168273ffffffffffffffffffffffffffffffffffffffff167fddf252ad1be2c89b69c2b068fc378daa952ba7f163c4a11628f55a4df523b3ef60405160405180910390a46118d881600084611f3b565b5050565b6000806118e7611f40565b90506118f38382611fb6565b915050919050565b600080824333600754604051602001611916939291906136f8565b6040516020818303038152906040528051906020012060001c6119399190613764565b90506007600081548092919061194e90613200565b919050555080915050919050565b600060038260ff161061197257611971613795565b5b61197a6126d5565b6119826126d5565b600860008781526020019081526020016000206040518060800160405290816000820160009054906101000a900460ff1660ff1660ff1681526020016000820160019054906101000a900460ff1660ff1660ff1681526020016000820160029054906101000a900460ff1660ff1660ff1681526020016000820160039054906101000a900460ff1660ff1660ff16815250509150600860008681526020019081526020016000206040518060800160405290816000820160009054906101000a900460ff1660ff1660ff1681526020016000820160019054906101000a900460ff1660ff1660ff1681526020016000820160029054906101000a900460ff1660ff1660ff1681526020016000820160039054906101000a900460ff1660ff1660ff16815250509050600060ff168460ff161415611b1557806000015160ff16826000015160ff161115611ada57600192505050611bee565b806000015160ff16826000015160ff161015611afb57600092505050611bee565b806060015160ff16826060015160ff161192505050611bee565b600160ff168460ff161415611b8057806020015160ff16826020015160ff161115611b4557600192505050611bee565b806020015160ff16826020015160ff161015611b6657600092505050611bee565b806060015160ff16826060015160ff161192505050611bee565b600260ff168460ff161415611beb57806040015160ff16826040015160ff161115611bb057600192505050611bee565b806040015160ff16826040015160ff161015611bd157600092505050611bee565b806060015160ff16826060015160ff161192505050611bee565b50505b9392505050565b611c00848484612087565b611c0c848484846122ee565b611c4b576040517f08c379a0000000000000000000000000000000000000000000000000000000008152600401611c4290613836565b60405180910390fd5b50505050565b8173ffffffffffffffffffffffffffffffffffffffff168373ffffffffffffffffffffffffffffffffffffffff161415611cc0576040517f08c379a0000000000000000000000000000000000000000000000000000000008152600401611cb7906138a2565b60405180910390fd5b80600560008573ffffffffffffffffffffffffffffffffffffffff1673ffffffffffffffffffffffffffffffffffffffff16815260200190815260200160002060008473ffffffffffffffffffffffffffffffffffffffff1673ffffffffffffffffffffffffffffffffffffffff16815260200190815260200160002060006101000a81548160ff0219169083151502179055508173ffffffffffffffffffffffffffffffffffffffff168373ffffffffffffffffffffffffffffffffffffffff167f17307eab39ab6107e8899845ad3d59bd9653f200f220920489ca2b5937696c3183604051611db191906127da565b60405180910390a3505050565b606060405180602001604052806000815250905090565b60606000821415611e1d576040518060400160405280600181526020017f30000000000000000000000000000000000000000000000000000000000000008152509050611f31565b600082905060005b60008214611e4f578080611e3890613200565b915050600a82611e4891906138c2565b9150611e25565b60008167ffffffffffffffff811115611e6b57611e6a612c14565b5b6040519080825280601f01601f191660200182016040528015611e9d5781602001600182028036833780820191505090505b5090505b60008514611f2a57600182611eb6919061365b565b9150600a85611ec59190613764565b6030611ed191906138f3565b60f81b818381518110611ee757611ee661310c565b5b60200101907effffffffffffffffffffffffffffffffffffffffffffffffffffffffffffff1916908160001a905350600a85611f2391906138c2565b9450611ea1565b8093505050505b919050565b505050565b505050565b611f486126d5565b6000611f54600a6118fb565b90506000611f62600a6118fb565b90506000611f70600a6118fb565b90506000611f7e600a6118fb565b905060405180608001604052808560ff1681526020018460ff1681526020018360ff1681526020018260ff1681525094505050505090565b6000806006549050600160066000828254611fd191906138f3565b92505081905550826008600083815260200190815260200160002060008201518160000160006101000a81548160ff021916908360ff16021790555060208201518160000160016101000a81548160ff021916908360ff16021790555060408201518160000160026101000a81548160ff021916908360ff16021790555060608201518160000160036101000a81548160ff021916908360ff16021790555090505061207d8482612476565b8091505092915050565b8273ffffffffffffffffffffffffffffffffffffffff166120a782610de2565b73ffffffffffffffffffffffffffffffffffffffff16146120fd576040517f08c379a00000000000000000000000000000000000000000000000000000000081526004016120f4906139bb565b60405180910390fd5b600073ffffffffffffffffffffffffffffffffffffffff168273ffffffffffffffffffffffffffffffffffffffff16141561216d576040517f08c379a000000000000000000000000000000000000000000000000000000000815260040161216490613a4d565b60405180910390fd5b612178838383611f36565b61218360008261167e565b6001600360008573ffffffffffffffffffffffffffffffffffffffff1673ffffffffffffffffffffffffffffffffffffffff16815260200190815260200160002060008282546121d3919061365b565b925050819055506001600360008473ffffffffffffffffffffffffffffffffffffffff1673ffffffffffffffffffffffffffffffffffffffff168152602001908152602001600020600082825461222a91906138f3565b92505081905550816002600083815260200190815260200160002060006101000a81548173ffffffffffffffffffffffffffffffffffffffff021916908373ffffffffffffffffffffffffffffffffffffffff160217905550808273ffffffffffffffffffffffffffffffffffffffff168473ffffffffffffffffffffffffffffffffffffffff167fddf252ad1be2c89b69c2b068fc378daa952ba7f163c4a11628f55a4df523b3ef60405160405180910390a46122e9838383611f3b565b505050565b600061230f8473ffffffffffffffffffffffffffffffffffffffff16612650565b15612469578373ffffffffffffffffffffffffffffffffffffffff1663150b7a02612338611676565b8786866040518563ffffffff1660e01b815260040161235a9493929190613ac2565b6020604051808303816000875af192505050801561239657506040513d601f19601f820116820180604052508101906123939190613b23565b60015b612419573d80600081146123c6576040519150601f19603f3d011682016040523d82523d6000602084013e6123cb565b606091505b50600081511415612411576040517f08c379a000000000000000000000000000000000000000000000000000000000815260040161240890613836565b60405180910390fd5b805181602001fd5b63150b7a0260e01b7bffffffffffffffffffffffffffffffffffffffffffffffffffffffff1916817bffffffffffffffffffffffffffffffffffffffffffffffffffffffff19161491505061246e565b600190505b949350505050565b600073ffffffffffffffffffffffffffffffffffffffff168273ffffffffffffffffffffffffffffffffffffffff1614156124e6576040517f08c379a00000000000000000000000000000000000000000000000000000000081526004016124dd90613b9c565b60405180910390fd5b6124ef8161160a565b1561252f576040517f08c379a000000000000000000000000000000000000000000000000000000000815260040161252690613c08565b60405180910390fd5b61253b60008383611f36565b6001600360008473ffffffffffffffffffffffffffffffffffffffff1673ffffffffffffffffffffffffffffffffffffffff168152602001908152602001600020600082825461258b91906138f3565b92505081905550816002600083815260200190815260200160002060006101000a81548173ffffffffffffffffffffffffffffffffffffffff021916908373ffffffffffffffffffffffffffffffffffffffff160217905550808273ffffffffffffffffffffffffffffffffffffffff16600073ffffffffffffffffffffffffffffffffffffffff167fddf252ad1be2c89b69c2b068fc378daa952ba7f163c4a11628f55a4df523b3ef60405160405180910390a461264c60008383611f3b565b5050565b6000808273ffffffffffffffffffffffffffffffffffffffff163b119050919050565b82600381019282156126a2579160200282015b828111156126a1578251825591602001919060010190612686565b5b5090506126af9190612709565b5090565b6040518060600160405280600390602082028036833780820191505090505090565b6040518060800160405280600060ff168152602001600060ff168152602001600060ff168152602001600060ff1681525090565b5b8082111561272257600081600090555060010161270a565b5090565b6000604051905090565b600080fd5b600080fd5b60007fffffffff0000000000000000000000000000000000000000000000000000000082169050919050565b61276f8161273a565b811461277a57600080fd5b50565b60008135905061278c81612766565b92915050565b6000602082840312156127a8576127a7612730565b5b60006127b68482850161277d565b91505092915050565b60008115159050919050565b6127d4816127bf565b82525050565b60006020820190506127ef60008301846127cb565b92915050565b600081519050919050565b600082825260208201905092915050565b60005b8381101561282f578082015181840152602081019050612814565b8381111561283e576000848401525b50505050565b6000601f19601f8301169050919050565b6000612860826127f5565b61286a8185612800565b935061287a818560208601612811565b61288381612844565b840191505092915050565b600060208201905081810360008301526128a88184612855565b905092915050565b6000819050919050565b6128c3816128b0565b81146128ce57600080fd5b50565b6000813590506128e0816128ba565b92915050565b6000602082840312156128fc576128fb612730565b5b600061290a848285016128d1565b91505092915050565b600073ffffffffffffffffffffffffffffffffffffffff82169050919050565b600061293e82612913565b9050919050565b61294e81612933565b82525050565b60006020820190506129696000830184612945565b92915050565b61297881612933565b811461298357600080fd5b50565b6000813590506129958161296f565b92915050565b600080604083850312156129b2576129b1612730565b5b60006129c085828601612986565b92505060206129d1858286016128d1565b9150509250929050565b6129e4816128b0565b82525050565b60006020820190506129ff60008301846129db565b92915050565b600080600060608486031215612a1e57612a1d612730565b5b6000612a2c86828701612986565b9350506020612a3d86828701612986565b9250506040612a4e868287016128d1565b9150509250925092565b600060208284031215612a6e57612a6d612730565b5b6000612a7c84828501612986565b91505092915050565b600080600060608486031215612a9e57612a9d612730565b5b6000612aac86828701612986565b9350506020612abd868287016128d1565b9250506040612ace868287016128d1565b9150509250925092565b612ae1816127bf565b8114612aec57600080fd5b50565b600081359050612afe81612ad8565b92915050565b60008060408385031215612b1b57612b1a612730565b5b6000612b2985828601612986565b9250506020612b3a85828601612aef565b9150509250929050565b600060039050919050565b600081905092915050565b6000819050919050565b612b6d816128b0565b82525050565b6000612b7f8383612b64565b60208301905092915050565b6000602082019050919050565b612ba181612b44565b612bab8184612b4f565b9250612bb682612b5a565b8060005b83811015612be7578151612bce8782612b73565b9650612bd983612b8b565b925050600181019050612bba565b505050505050565b6000606082019050612c046000830184612b98565b92915050565b600080fd5b600080fd5b7f4e487b7100000000000000000000000000000000000000000000000000000000600052604160045260246000fd5b612c4c82612844565b810181811067ffffffffffffffff82111715612c6b57612c6a612c14565b5b80604052505050565b6000612c7e612726565b9050612c8a8282612c43565b919050565b600067ffffffffffffffff821115612caa57612ca9612c14565b5b612cb382612844565b9050602081019050919050565b82818337600083830152505050565b6000612ce2612cdd84612c8f565b612c74565b905082815260208101848484011115612cfe57612cfd612c0f565b5b612d09848285612cc0565b509392505050565b600082601f830112612d2657612d25612c0a565b5b8135612d36848260208601612ccf565b91505092915050565b60008060008060808587031215612d5957612d58612730565b5b6000612d6787828801612986565b9450506020612d7887828801612986565b9350506040612d89878288016128d1565b925050606085013567ffffffffffffffff811115612daa57612da9612735565b5b612db687828801612d11565b91505092959194509250565b600060ff82169050919050565b612dd881612dc2565b82525050565b6000608082019050612df36000830187612dcf565b612e006020830186612dcf565b612e0d6040830185612dcf565b612e1a6060830184612dcf565b95945050505050565b60008060408385031215612e3a57612e39612730565b5b6000612e4885828601612986565b9250506020612e5985828601612986565b9150509250929050565b7f4e487b7100000000000000000000000000000000000000000000000000000000600052602260045260246000fd5b60006002820490506001821680612eaa57607f821691505b60208210811415612ebe57612ebd612e63565b5b50919050565b7f4552433732313a20617070726f76656420717565727920666f72206e6f6e657860008201527f697374656e7420746f6b656e0000000000000000000000000000000000000000602082015250565b6000612f20602c83612800565b9150612f2b82612ec4565b604082019050919050565b60006020820190508181036000830152612f4f81612f13565b9050919050565b7f4552433732313a20617070726f76616c20746f2063757272656e74206f776e6560008201527f7200000000000000000000000000000000000000000000000000000000000000602082015250565b6000612fb2602183612800565b9150612fbd82612f56565b604082019050919050565b60006020820190508181036000830152612fe181612fa5565b9050919050565b7f4552433732313a20617070726f76652063616c6c6572206973206e6f74206f7760008201527f6e6572206e6f7220617070726f76656420666f7220616c6c0000000000000000602082015250565b6000613044603883612800565b915061304f82612fe8565b604082019050919050565b6000602082019050818103600083015261307381613037565b9050919050565b7f43616e206f6e6c79207377617020796f7572206f776e204d6f6e20666f72206160008201527f206e6577204d6f6e000000000000000000000000000000000000000000000000602082015250565b60006130d6602883612800565b91506130e18261307a565b604082019050919050565b60006020820190508181036000830152613105816130c9565b9050919050565b7f4e487b7100000000000000000000000000000000000000000000000000000000600052603260045260246000fd5b7f7472616e7366657273206f66204d6f6e73206172652064697361626c65640000600082015250565b6000613171601e83612800565b915061317c8261313b565b602082019050919050565b600060208201905081810360008301526131a081613164565b9050919050565b7f4e487b7100000000000000000000000000000000000000000000000000000000600052601160045260246000fd5b60006131e182612dc2565b915060ff8214156131f5576131f46131a7565b5b600182019050919050565b600061320b826128b0565b91507fffffffffffffffffffffffffffffffffffffffffffffffffffffffffffffffff82141561323e5761323d6131a7565b5b600182019050919050565b7f4552433732313a206f776e657220717565727920666f72206e6f6e657869737460008201527f656e7420746f6b656e0000000000000000000000000000000000000000000000602082015250565b60006132a5602983612800565b91506132b082613249565b604082019050919050565b600060208201905081810360008301526132d481613298565b9050919050565b7f4552433732313a2062616c616e636520717565727920666f7220746865207a6560008201527f726f206164647265737300000000000000000000000000000000000000000000602082015250565b6000613337602a83612800565b9150613342826132db565b604082019050919050565b600060208201905081810360008301526133668161332a565b9050919050565b7f43616e6e6f7420737761702061204d6f6e2074686174206973206e6f7420666f60008201527f722073616c650000000000000000000000000000000000000000000000000000602082015250565b60006133c9602683612800565b91506133d48261336d565b604082019050919050565b600060208201905081810360008301526133f8816133bc565b9050919050565b7f43616e6e6f7420737761702061204d6f6e207769746820796f757273656c6600600082015250565b6000613435601f83612800565b9150613440826133ff565b602082019050919050565b6000602082019050818103600083015261346481613428565b9050919050565b7f706c6179657220616c7265616479206a6f696e65640000000000000000000000600082015250565b60006134a1601583612800565b91506134ac8261346b565b602082019050919050565b600060208201905081810360008301526134d081613494565b9050919050565b7f4552433732314d657461646174613a2055524920717565727920666f72206e6f60008201527f6e6578697374656e7420746f6b656e0000000000000000000000000000000000602082015250565b6000613533602f83612800565b915061353e826134d7565b604082019050919050565b6000602082019050818103600083015261356281613526565b9050919050565b600081905092915050565b600061357f826127f5565b6135898185613569565b9350613599818560208601612811565b80840191505092915050565b60006135b18285613574565b91506135bd8284613574565b91508190509392505050565b7f43616e206f6e6c792070757420796f7572206f776e206d6f6e7320757020666f60008201527f722073616c650000000000000000000000000000000000000000000000000000602082015250565b6000613625602683612800565b9150613630826135c9565b604082019050919050565b6000602082019050818103600083015261365481613618565b9050919050565b6000613666826128b0565b9150613671836128b0565b925082821015613684576136836131a7565b5b828203905092915050565b6000819050919050565b6136aa6136a5826128b0565b61368f565b82525050565b60008160601b9050919050565b60006136c8826136b0565b9050919050565b60006136da826136bd565b9050919050565b6136f26136ed82612933565b6136cf565b82525050565b60006137048286613699565b60208201915061371482856136e1565b6014820191506137248284613699565b602082019150819050949350505050565b7f4e487b7100000000000000000000000000000000000000000000000000000000600052601260045260246000fd5b600061376f826128b0565b915061377a836128b0565b92508261378a57613789613735565b5b828206905092915050565b7f4e487b7100000000000000000000000000000000000000000000000000000000600052600160045260246000fd5b7f4552433732313a207472616e7366657220746f206e6f6e20455243373231526560008201527f63656976657220696d706c656d656e7465720000000000000000000000000000602082015250565b6000613820603283612800565b915061382b826137c4565b604082019050919050565b6000602082019050818103600083015261384f81613813565b9050919050565b7f4552433732313a20617070726f766520746f2063616c6c657200000000000000600082015250565b600061388c601983612800565b915061389782613856565b602082019050919050565b600060208201905081810360008301526138bb8161387f565b9050919050565b60006138cd826128b0565b91506138d8836128b0565b9250826138e8576138e7613735565b5b828204905092915050565b60006138fe826128b0565b9150613909836128b0565b9250827fffffffffffffffffffffffffffffffffffffffffffffffffffffffffffffffff0382111561393e5761393d6131a7565b5b828201905092915050565b7f4552433732313a207472616e736665722066726f6d20696e636f72726563742060008201527f6f776e6572000000000000000000000000000000000000000000000000000000602082015250565b60006139a5602583612800565b91506139b082613949565b604082019050919050565b600060208201905081810360008301526139d481613998565b9050919050565b7f4552433732313a207472616e7366657220746f20746865207a65726f2061646460008201527f7265737300000000000000000000000000000000000000000000000000000000602082015250565b6000613a37602483612800565b9150613a42826139db565b604082019050919050565b60006020820190508181036000830152613a6681613a2a565b9050919050565b600081519050919050565b600082825260208201905092915050565b6000613a9482613a6d565b613a9e8185613a78565b9350613aae818560208601612811565b613ab781612844565b840191505092915050565b6000608082019050613ad76000830187612945565b613ae46020830186612945565b613af160408301856129db565b8181036060830152613b038184613a89565b905095945050505050565b600081519050613b1d81612766565b92915050565b600060208284031215613b3957613b38612730565b5b6000613b4784828501613b0e565b91505092915050565b7f4552433732313a206d696e7420746f20746865207a65726f2061646472657373600082015250565b6000613b86602083612800565b9150613b9182613b50565b602082019050919050565b60006020820190508181036000830152613bb581613b79565b9050919050565b7f4552433732313a20746f6b656e20616c7265616479206d696e74656400000000600082015250565b6000613bf2601c83612800565b9150613bfd82613bbc565b602082019050919050565b60006020820190508181036000830152613c2181613be5565b905091905056fea2646970667358221220b1b86bb12f8cd7e118a9486c4432eb79b81ebf38eb917dd316fbfe8d3a33abbb64736f6c634300080c0033",
  "linkReferences": {},
  "deployedLinkReferences": {}
}